:100000000C9463000C948B000C948B000C948B006C
:100010000C948B000C948B000C948B000C948B0034
:100020000C948B000C948B000C948B000C94DD01D1
:100030000C948B000C948B000C948B000C948B0014
:100040000C94F4030C948B000C9484050C948B009A
:100050000C948B000C948B000C948B000C948B00F4
:100060000C948B000C948B000000000024002700EF
:100070002A0000000000250028002B0000000000DE
:1000800023002600290004040404040404040202DA
:100090000202020203030303030301020408102007
:1000A0004080010204081020010204081020000012
:1000B0000007000201000003040600000000000029
:1000C00000008B02CD0611241FBECFEFD4E0DEBFAF
:1000D000CDBF11E0A0E0B1E0ECE3F0E102C005909B
:1000E0000D92A831B107D9F711E0A8E1B1E001C044
:1000F0001D92AD3FB107E1F710E0C6ECD0E004C0BF
:100100002297FE010E941808C23CD107C9F70E943D
:10011000ED030C941C080C940000FC018091190163
:100120008C3028F480838F5F8093190108958FEFBE
:10013000808308959F92AF92BF92CF92DF92EF9209
:10014000FF920F931F93FC0190808BE0891508F4B8
:1001500082C0292D30E0683C710508F040C000D015
:1001600000D080E090E0F901EE0FFF1FEE0FFF1FBF
:10017000E20FF31FE65EFE4F2381332727FD309504
:1001800048E8A42EB12CA21AB30AAA0CBB1CAA0CD4
:10019000BB1CCC24DD24E481FF27E7FDF09528E596
:1001A00032E02E1B3F0B220F331F220F331F40E084
:1001B00050E0EDB7FEB7218332834383548320E0C0
:1001C00030E040E050E014EBE12EF12C012D112D38
:1001D0000E943E070F900F900F900F9028C0F901DA
:1001E000EE0FFF1FEE0FFF1FE20FF31FE65EFE4F45
:1001F0008381992787FD909528E830E0281B390BEB
:10020000220F331F220F331F6217730778F0848188
:10021000992787FD909528E532E0281B390B220F9E
:10022000331F220F331F2617370708F4B901665012
:1002300070482FB7F894892D90E0FC01EE0FFF1F56
:10024000EE0FFF1FE80FF91FE65EFE4F660F771FE8
:10025000728361832FBF1F910F91FF90EF90DF900A
:10026000CF90BF90AF909F900895CF92DF92EF9282
:10027000FF921F93CF93DF93EC01162F7A01690150
:1002800088818C3008F089C0862F61E00E941705B4
:10029000888190E0FC01EE0FFF1FEE0FFF1FE80FBB
:1002A000F91FE65EFE4F1F738081807C812B808367
:1002B000888190E0FC01EE0FFF1FEE0FFF1FE80F9B
:1002C000F91FE65EFE4F808180648083888190E024
:1002D000FC01EE0FFF1FEE0FFF1FE80FF91FE65E98
:1002E000FE4F80E292E08E199F0964E070E00E9468
:1002F000B2076383888190E0FC01EE0FFF1FEE0FD1
:10030000FF1FE80FF91FE65EFE4F80E699E08C19AB
:100310009D0964E070E00E94B207648388816CE00C
:100320000E94A607582F40911801282F30E0842FF3
:1003300090E0052E02C0959587950A94E2F780FD1E
:100340002CC08CE390E0289FF001299FF00D389F8E
:10035000F00D1124E55EFE4F80E068EB7BE07183D9
:1003600060838F5F35968C30D1F7552361F41092FE
:10037000800082E0809381001092850010928400BA
:1003800086BB80936F0081E090E002C0880F991FC8
:100390002A95E2F7482B409318018881DF91CF918D
:1003A0001F91FF90EF90DF90CF90089540E252E0D0
:1003B00020E639E00E94350108951F920F920FB692
:1003C0000F9211242F933F934F935F936F937F93DB
:1003D0008F939F93AF93BF93EF93FF9380915601B9
:1003E00087FF05C0109285001092840024C0809180
:1003F0005601992787FD9095FC01EE0FFF1FEE0F28
:10040000FF1FE80FF91FE65EFE4F808186FF13C0D5
:1004100080915601992787FD9095FC01EE0FFF1FF3
:10042000EE0FFF1FE80FF91FE65EFE4F80818F730E
:1004300060E00E943705809156018F5F80935601DE
:10044000809156018C300CF03FC020918400309197
:10045000850080915601992787FD9095FC01EE0F4C
:10046000FF1FEE0FFF1FE80FF91FE65EFE4F8181B1
:100470009281280F391F3093890020938800809142
:100480005601992787FD9095FC01EE0FFF1FEE0F97
:10049000FF1FE80FF91FE65EFE4F808186FF2AC02E
:1004A00080915601992787FD9095FC01EE0FFF1F63
:1004B000EE0FFF1FE80FF91FE65EFE4F80818F737E
:1004C00061E00E94370516C08091840090918500FC
:1004D00084549C4918F480E49CE905C08091840010
:1004E00090918500049690938900809388008FEF07
:1004F00080935601FF91EF91BF91AF919F918F91A2
:100500007F916F915F914F913F912F910F900FBE0F
:100510000F901F90189587E591E00E948D00089537
:100520009F92AF92BF92CF92DF92EF92FF920F9382
:100530001F93CF93DF938C01EB011816190634F447
:1005400080910001B8010E94BE043BC00097A1F158
:100550008091000160E00E9437059090020100D078
:1005600000D0B801882777FD8095982F2FEF30E0D5
:1005700040E050E0EDB7FEB72183328343835483DC
:1005800020E030E040E050E0F1E0EF2EFFEFFF2E02
:10059000FFEF0F2FFFEF1F2FAA24BB2465010E943E
:1005A0003E079B01AC010F900F900F900F90892D8B
:1005B000B9010E94BE040AC08091000160E00E945F
:1005C00037058091020160E00E9437051C161D0668
:1005D00034F480910401BE010E94BE043BC0209708
:1005E000A1F18091040160E00E943705909006011E
:1005F00000D000D0BE01882777FD8095982F2FEF7F
:1006000030E040E050E0EDB7FEB721833283438312
:10061000548320E030E040E050E0E1E0EE2EEFEFE8
:10062000FE2EEFEF0E2FEFEF1E2FAA24BB24650145
:100630000E943E079B01AC010F900F900F900F900E
:10064000892DB9010E94BE040AC08091040160E0B6
:100650000E9437058091060160E00E943705DF9116
:10066000CF911F910F91FF90EF90DF90CF90BF90AF
:10067000AF909F900895609108017091090187E5FE
:1006800091E00E949A0060910A0170910B01882705
:1006900077FD8095982F0E943C04209108013091AD
:1006A0000901203A31051CF081E0809358012E3277
:1006B000310514F41092580180915801882319F4DF
:1006C0002B5F3F4F02C025503040309309012093EB
:1006D000080180E00E94A0049C012D5F3F4F8091A3
:1006E0000801909109018B3591057CF081E02C3255
:1006F000380714F110925A01109259018FEF90E0CF
:1007000090935C0180935B0111C08A3591053CF5A3
:1007100081E02C32380784F08FEF90E090935A01FB
:100720008093590110925C0110925B018AEF90E076
:1007300090930B0180930A012B52314084F48FEF88
:1007400090E090935A018093590190935C018093BB
:100750005B0182E390E090930B0180930A0160912A
:100760005B0170915C018091590190915A010E9446
:10077000900208950F931F938AEE91E040E855E2AE
:1007800060E070E00E94C1058091000161E00E947C
:1007900017058091020161E00E9417058091040114
:1007A00061E00E9417058091060161E00E94170533
:1007B00007E511E0C80169E070E00E94D601C801B8
:1007C0006AE570E00E949A0068EE73E080E090E0D5
:1007D0000E943C041F910F9108950E9466040E949C
:1007E000BA030E943B03FDCF1F920F920FB60F92E8
:1007F00011242F933F938F939F93AF93BF93809137
:10080000610190916201A0916301B0916401309106
:1008100065010196A11DB11D232F2D5F2D3720F0FD
:100820002D570196A11DB11D209365018093610193
:1008300090936201A0936301B093640180915D0184
:1008400090915E01A0915F01B09160010196A11DA0
:10085000B11D80935D0190935E01A0935F01B09301
:100860006001BF91AF919F918F913F912F910F9018
:100870000FBE0F901F901895EF92FF920F931F934A
:100880007B018C018FB7F894409161015091620116
:1008900060916301709164018FBF2FB7F8948091CC
:1008A000610190916201A0916301B09164012FBF39
:1008B000841B950BA60BB70BE816F9060A071B0756
:1008C00060F71F910F91FF90EF900895789484B591
:1008D000826084BD84B5816084BD85B5826085BD3C
:1008E00085B5816085BDEEE6F0E080818160808322
:1008F000E1E8F0E080818260808380818160808394
:10090000E0E8F0E0808181608083E1EBF0E08081CD
:1009100084608083E0EBF0E0808181608083EAE79F
:10092000F0E0808184608083808182608083808128
:10093000816080838081806880831092C1000895E7
:100940008F7090910C019295990F990F907C982B34
:1009500090937C0080917A00806480937A008091EB
:100960007A0086FDFCCF2091780040917900942F89
:1009700080E030E0282B392BC90108951F93CF93D5
:10098000DF93182FEB0161E00E941705E12FF0E0E3
:10099000E255FF4F8491833051F48091800080684C
:1009A00080938000D0938900C09388003CC084303D
:1009B00051F480918000806280938000D0938B00FE
:1009C000C0938A0030C0813039F4209729F184B572
:1009D000806884BDC7BD27C0823039F42097E1F01C
:1009E00084B5806284BDC8BD1EC0863041F480914C
:1009F000B00080688093B000C093B30014C087300B
:100A000041F48091B00080628093B000C093B40044
:100A10000AC0C038D1051CF4812F60E002C0812FCC
:100A200061E00E943705DF91CF911F910895282F33
:100A300030E0C90186569F4FFC0194912A573F4FE1
:100A4000F9018491882391F0E82FF0E0EE0FFF1F69
:100A5000E859FF4FA591B491662329F48C919095A4
:100A600089238C9308958C91892B8C930895482F1A
:100A700050E0CA0182559F4FFC012491CA0186565D
:100A80009F4FFC0194914A575F4FFA0134913323F1
:100A9000D1F1222331F1233021F4809180008F772E
:100AA00005C0243031F4809180008F7D80938000D8
:100AB00018C0213019F484B58F7704C0223021F496
:100AC00084B58F7D84BD0DC0263021F48091B000A7
:100AD0008F7705C0273029F48091B0008F7D8093F7
:100AE000B000E32FF0E0EE0FFF1FEE58FF4FA5918F
:100AF000B491662329F48C91909589238C93089561
:100B00008C91892B8C9308951F920F920FB60F92A0
:100B100011242F933F934F935F936F937F938F9302
:100B20009F93AF93BF93EF93FF934091C600E091E3
:100B3000E601F091E701CF01019660E870E00E94C4
:100B4000B2079C018091E8019091E90128173907CB
:100B500039F0EA59FE4F40833093E7012093E601D4
:100B6000FF91EF91BF91AF919F918F917F916F9185
:100B70005F914F913F912F910F900FBE0F901F905B
:100B800018955F926F927F928F929F92AF92BF92D1
:100B9000CF92DF92EF92FF920F931F93CF93DF9349
:100BA000EC013A014B01413482E458078FE06807B9
:100BB00080E078070CF07FC060E874E88EE190E098
:100BC000A40193010E94E70721503040404050406B
:100BD000CA01B90122E030E040E050E00E94E7079E
:100BE00059016A01A60195012095309540955095CF
:100BF00094E0220F331F441F551F9A95D1F760E0F0
:100C000074E284EF90E00E94E707CA01B9012FEF78
:100C100030E040E050E00E948707A40193010E9469
:100C2000E707C90181509F4F181619061CF4522E70
:100C30005A9403C055245394521A60E079E08DE32E
:100C400090E0A40193010E94E7072150304040400A
:100C50005040CA01B90122E030E040E050E00E947B
:100C6000E707209530954095509583E0220F331F7C
:100C7000441F551F8A95D1F760E074E284EF90E03D
:100C80000E94E707CA01B9012FEF30E040E050E0D1
:100C90000E948707A40193010E94E707C9018150C0
:100CA0009F4F181619061CF4822F815002C081E054
:100CB000821B851500F5E885F98581E090E00A88BA
:100CC00002C0880F991F0A94E2F7808360E079E000
:100CD0008DE390E0A40193010E94E707215030408A
:100CE00040405040CA01B90122E030E040E050E00D
:100CF0000E94E70704C0E885F98510829501EC8120
:100D0000FD813083EE81FF812083EA85FB85208190
:100D100041E050E0CA010E8402C0880F991F0A9476
:100D2000E2F7282B2083EA85FB852081CA010F8406
:100D300002C0880F991F0A94E2F7282B2083EA85C6
:100D4000FB858081088802C0440F551F0A94E2F792
:100D5000842B8083DF91CF911F910F91FF90EF90B3
:100D6000DF90CF90BF90AF909F908F907F906F90CB
:100D70005F900895FC01A085B18521898C9190E058
:100D8000022E02C0959587950A94E2F780FFF6CF70
:100D90000484F585E02D6083089581E191E09093CE
:100DA000EB018093EA0186E691E09093ED01809358
:100DB000EC0185EC90E09093EF018093EE0184ECE0
:100DC00090E09093F1018093F00180EC90E090939B
:100DD000F3018093F20181EC90E09093F501809310
:100DE000F40186EC90E09093F7018093F60184E0A3
:100DF0008093F80183E08093F90187E08093FA0102
:100E000085E08093FB0181E08093FC0108950F93BE
:100E10001F93CF93DF938C01EB0109C02196D8017A
:100E2000ED91FC910190F081E02DC8010995688158
:100E30006623A1F7DF91CF911F910F910895EF9253
:100E4000FF920F931F93CF93DF938C017B01EA01F5
:100E50000CC0D7016D917D01D801ED91FC910190FD
:100E6000F081E02DC80109952197209791F7DF9136
:100E7000CF911F910F91FF90EF9008952F923F9285
:100E80004F925F926F927F928F929F92AF92BF929A
:100E9000CF92DF92EF92FF920F931F93DF93CF9346
:100EA000CDB7DEB73B014C0119012A016D897E895E
:100EB0008F89988D6A197B098C099D09621A730ABA
:100EC000840A950AA40193010E948707E218F30897
:100ED00004091509A80197010E94E7072A0D3B1D87
:100EE0004C1D5D1DB901CA01CF91DF911F910F917A
:100EF000FF90EF90DF90CF90BF90AF909F908F903A
:100F00007F906F905F904F903F902F900895629FD9
:100F1000D001739FF001829FE00DF11D649FE00DF1
:100F2000F11D929FF00D839FF00D749FF00D659F52
:100F3000F00D9927729FB00DE11DF91F639FB00D51
:100F4000E11DF91FBD01CF0111240895991B79E01E
:100F500004C0991F961708F0961B881F7A95C9F749
:100F60008095089597FB092E07260AD077FD04D0B7
:100F700049D006D000201AF4709561957F4F0895EE
:100F8000F6F7909581959F4F0895A1E21A2EAA1B1E
:100F9000BB1BFD010DC0AA1FBB1FEE1FFF1FA21729
:100FA000B307E407F50720F0A21BB30BE40BF50B26
:100FB000661F771F881F991F1A9469F760957095AF
:100FC000809590959B01AC01BD01CF01089597FBE1
:100FD000092E05260ED057FD04D0D7DF0AD0001CFD
:100FE00038F450954095309521953F4F4F4F5F4FC6
:100FF0000895F6F790958095709561957F4F8F4F86
:101000009F4F0895AA1BBB1B51E107C0AA1FBB1F1E
:10101000A617B70710F0A61BB70B881F991F5A9584
:10102000A9F780959095BC01CD010895EE0FFF1FA3
:0C1030000590F491E02D0994F894FFCF96
:10103C0005000600080003005A000A000100000029
:08104C0000BA0607071F0700A8
:00000001FF
